:020000021000EC
:10F000000C9472F80C9491F80C9491F80C9491F87B
:10F010000C9491F80C9491F80C9491F80C9491F84C
:10F020000C9491F80C9491F80C9491F80C9491F83C
:10F030000C9491F80C9491F80C9491F80C9491F82C
:10F040000C9491F80C9491F80C9491F80C9491F81C
:10F050000C9491F80C9491F80C9491F80C9491F80C
:10F060000C9491F80C9491F80C9491F80C9491F8FC
:10F070000C9491F80C9491F80C9491F80C9491F8EC
:10F080000C9491F80C9491F80C9491F80C9491F8DC
:10F090000C9491F80C9491F80C9491F80C9491F8CC
:10F0A0000C9491F80C9491F80C9491F80C9491F8BC
:10F0B0000C9491F80C9491F80C9491F80C9491F8AC
:10F0C0000C9491F80C9491F80C9491F80C9491F89C
:10F0D0000C9491F80C9491F80C9491F80C9491F88C
:10F0E0000C9491F811241FBECFEFD1E2DEBFCDBF4B
:10F0F00012E0A0E0B2E0E6E9FBEF01E00BBF02C0E6
:10F1000007900D92A230B107D9F713E0A2E0B2E068
:10F1100001C01D92AD30B107E1F70E9411FA0C94C5
:10F12000C9FD0C9400F8982F959595959595959512
:10F13000905D8F708A301CF1282F295A809102022D
:10F14000813019F0823071F008958091C00085FF00
:10F15000FCCF9093C6008091C00085FFFCCF209328
:10F16000C60008958091C80085FFFCCF9093CE0023
:10F170008091C80085FFFCCF2093CE000895282FF2
:10F18000205DDCCF982F80910202813019F082300F
:10F1900041F008958091C00085FFFCCF9093C60098
:10F1A00008958091C80085FFFCCF9093CE0008950C
:10F1B000EF92FF920F931F9380910202813069F1C9
:10F1C000823031F080E01F910F91FF90EF90089511
:10F1D000EE24FF2487018091C80087FD17C00894A2
:10F1E000E11CF11C011D111D81E4E81682E4F80602
:10F1F0008FE0080780E0180770F3E0910402F091B7
:10F20000050209958091C80087FFE9CF8091CE0063
:10F210001F910F91FF90EF900895EE24FF24870136
:10F220008091C00087FD17C00894E11CF11C011DEE
:10F23000111D81E4E81682E4F8068FE0080780E0FB
:10F24000180770F3E0910402F0910502099580918E
:10F25000C00087FFE9CF8091C6001F910F91FF90FA
:10F26000EF9008950E94D8F8982F80910202813083
:10F2700049F0823091F091366CF490330CF0905359
:10F28000892F08958091C00085FFFCCF9093C60020
:10F2900091369CF39755892F08958091C80085FF7A
:10F2A000FCCF9093CE00E7CF1F930E9432F9182F26
:10F2B0000E9432F91295107F810F1F910895982FA7
:10F2C00020910202992339F0213031F0223061F08F
:10F2D00091509923C9F708958091C00087FFFCCF12
:10F2E0008091C6009150F5CF8091C80087FFFCCF78
:10F2F0008091CE009150EDCF1F93182F0E94D8F827
:10F30000803249F0809103028F5F80930302853041
:10F3100091F11F910895809102028130B9F08230FD
:10F32000C1F78091C80085FFFCCF84E18093CE00B7
:10F330008091C80085FFFCCF1093CE008091C8005B
:10F3400085FFFCCF80E18093CE00E3CF8091C000A9
:10F3500085FFFCCF84E18093C6008091C00085FFCB
:10F36000FCCF1093C6008091C00085FFFCCF80E1E8
:10F370008093C600CECFE0910402F091050209957A
:10F380001F9108950E94D8F8803241F080910302C5
:10F390008F5F80930302853029F1089580910202E6
:10F3A000813089F08230C9F78091C80085FFFCCF99
:10F3B00084E18093CE008091C80085FFFCCF80E17E
:10F3C0008093CE0008958091C00085FFFCCF84E13A
:10F3D0008093C6008091C00085FFFCCF80E18093C0
:10F3E000C6000895E0910402F09105020995089580
:10F3F00040E951E08823A1F02D9A28EE33E0FA018C
:10F400003197F1F721503040D1F72D9828EE33E0B5
:10F41000FA013197F1F721503040D1F7815061F76F
:10F4200008952F923F924F925F926F927F928F92A8
:10F430009F92AF92BF92CF92DF92EF92FF920F9383
:10F440001F93CF93DF93000081E08093020280E15D
:10F450008093C4001092C5001092C00086E0809393
:10F46000C20088E18093C1006898709A259A81E073
:10F470000E94F8F994E1E92E8EE1D82E07E9C02E1A
:10F4800014E0B12EB0E1AB2E99249394A1E48A2E1E
:10F49000F6E57F2EE2E56E2E70E2572E69E4462EE9
:10F4A00053E5352E40E5242E0E94D8F88033B1F183
:10F4B000813309F44FC0803409F4C5C0813409F4A4
:10F4C000E7C0823471F1853409F4C7C0803531F169
:10F4D000823521F1813511F1853509F4E8C0863591
:10F4E00009F4F8C0843609F418C1843709F49BC1C3
:10F4F000853709F463C2863709F4D5C080910302C9
:10F500008F5F80930302853079F6E0910402F091D9
:10F51000050209950E94D8F8803351F60E94C2F97D
:10F52000C3CF2091020293E105C0223061F09923FC
:10F53000A9F391502130C9F78091C00087FFFCCF1B
:10F540008091C600F4CF8091C80087FFFCCF8091E6
:10F55000CE00EDCF0E94D8F8803281F68091020271
:10F560008130D1F1823009F09FCF8091C80085FFB2
:10F57000FCCFE092CE008091C80085FFFCCF809246
:10F58000CE008091C80085FFFCCF7092CE008091A4
:10F59000C80085FFFCCF6092CE008091C80085FF37
:10F5A000FCCF5092CE008091C80085FFFCCF4092E6
:10F5B000CE008091C80085FFFCCF3092CE008091B4
:10F5C000C80085FFFCCF2092CE008091C80085FF47
:10F5D000FCCFA092CE0068CF8091C00085FFFCCF09
:10F5E000E092C6008091C00085FFFCCF8092C600EB
:10F5F0008091C00085FFFCCF7092C6008091C00052
:10F6000085FFFCCF6092C6008091C00085FFFCCFD3
:10F610005092C6008091C00085FFFCCF4092C6008A
:10F620008091C00085FFFCCF3092C6008091C00061
:10F6300085FFFCCF2092C6008091C00085FFFCCFE3
:10F64000A092C60031CF0E94D8F8863808F466CF61
:10F650000E94D8F80E94C2F927CF2091020294E0BC
:10F66000213041F0223069F0992309F457CF9150AD
:10F670002130C1F78091C00087FFFCCF8091C60088
:10F68000F3CF8091C80087FFFCCF8091CE00ECCFF4
:10F690000E94D8F88038D1F08138D9F1823809F445
:10F6A000BEC0883979F080E00E947CF9FDCE0E94CE
:10F6B000D8F8809306020E94D8F8809307020E942F
:10F6C000C2F9F2CE83E00E947CF9EECE82E00E9485
:10F6D0007CF9EACE0E94D8F8803309F4D4C1209195
:10F6E000020292E0213039F0223061F09923D9F200
:10F6F00091502130C9F78091C00087FFFCCF8091E5
:10F70000C600F4CF8091C80087FFFCCF8091CE0067
:10F71000EDCF81E00E947CF9C7CE0E94D8F880939B
:10F7200009030E94D8F88093080380910C038E7F10
:10F7300080930C030E94D8F8853409F489C1809124
:10F74000080390910903892B89F000E010E00E94E2
:10F75000D8F8F801E85FFD4F80830F5F1F4F80915D
:10F760000803909109030817190788F30E94D8F835
:10F77000803209F0C3CE80910C0380FF95C1409187
:10F78000060250910702440F551F50930702409301
:10F790000602609108037091090361157105F1F08B
:10F7A00080E090E09A01280F391FFC01E85FFD4FCF
:10F7B000E081F999FECF1FBA32BD21BDE0BD0FB681
:10F7C000F894FA9AF99A0FBE01968617970750F3A4
:10F7D000460F571F50930702409306028091020282
:10F7E000813081F0823009F05FCE8091C80085FFC2
:10F7F000FCCFE092CE008091C80085FFFCCFA092A4
:10F80000CE0052CE8091C00085FFFCCFE092C600B2
:10F810008091C00085FFFCCFA092C60045CE80E15C
:10F820000E947CF941CE0E94D8F8809309030E947F
:10F83000D8F880930803209106023091070237FD23
:10F8400013C180910C038D7F80930C03220F331F13
:10F8500030930702209306020E94D8F8853409F4F9
:10F86000FDC080910C038E7F80930C030E94D8F81A
:10F87000803209F019CE60910202613009F46FC044
:10F88000623009F473C00091080310910903011557
:10F89000110509F440C080910C03782F7170F82E87
:10F8A000F69481E0F822409106025091070220E090
:10F8B00030E013C0FF2009F060C0FA01949161307C
:10F8C00009F43BC0623009F441C0CA0101962F5FC0
:10F8D0003F4FAC0120173107D0F4772359F3F99942
:10F8E000FECF52BD41BDF89A90B56130F9F062305B
:10F8F00061F78091C80085FFFCCF9093CE00CA01CC
:10F9000001962F5F3F4FAC012017310730F39093E2
:10F91000070280930602613009F4ACC0623009F03E
:10F92000C3CD8091C80085FFFCCF53CE8091C0002D
:10F9300085FFFCCF9093C600C8CF8091C00085FDA5
:10F94000F9CF8091C00085FFF8CFF4CF8091C80037
:10F9500085FDD3CF8091C80085FFF8CFCECF8091B1
:10F96000C00085FFFCCFE092C6008DCF8091C8001B
:10F9700085FFFCCFE092CE0086CFCA01A0E0B0E0C8
:10F9800080509040AF4FBF4FABBFFC0197916130AB
:10F9900061F0623009F099CF8091C80085FDADCF4C
:10F9A0008091C80085FFF8CFA8CF8091C00085FD69
:10F9B000C1CF8091C00085FFF8CFBCCF0E94D8F89E
:10F9C000803209F09BCD80910202813011F18230AA
:10F9D00009F06ACD8091C80085FFFCCFE092CE008F
:10F9E0008091C80085FFFCCFD092CE008091C800E6
:10F9F00085FFFCCFC092CE008091C80085FFFCCF70
:10FA0000B092CE008091C80085FFFCCFA092CE00BE
:10FA10004BCD8091C00085FFFCCFE092C600809165
:10FA2000C00085FFFCCFD092C6008091C00085FF4A
:10FA3000FCCFC092C6008091C00085FFFCCFB09281
:10FA4000C6008091C00085FFFCCFA092C6002CCDDF
:10FA500080910C03816080930C0371CE80910C0324
:10FA6000816080930C0302CF80910C0382608093AD
:10FA70000C03ECCE8091C00085FDE2CD8091C000EA
:10FA800085FFF8CFDDCD0E94D8F80E94D8F8182F56
:10FA90000E94D8F8112309F478C0113009F471C01C
:10FAA00084E00E947CF900CD809107028823880FB2
:10FAB000880B892180930B038BBF80910602909164
:10FAC0000702880F991F9093070280930602809186
:10FAD000080380FF09C080910803909109030196F3
:10FAE0009093090380930803F894F999FECF1127A6
:10FAF000E0910602F0910702C8E0D2E0809108038D
:10FB000090910903103091F4009157000170013079
:10FB1000D9F303E000935700E89500915700017076
:10FB20000130D9F301E100935700E895099019904D
:10FB30000091570001700130D9F301E000935700A4
:10FB4000E8951395103898F011270091570001702F
:10FB50000130D9F305E000935700E8950091570074
:10FB600001700130D9F301E100935700E895329616
:10FB7000029709F0C7CF103011F00296E5CF11249B
:10FB80002DCE87E90E947CF98FCC8EE10E947CF912
:06FB90008BCCF894FFCFBE
:02FB96008000ED
:040000031000F000F9
:00000001FF
